:020000040800F2
:1000000070060020A9010008812B0008E5230008E4
:100010007D2B000827070008413B00080000000076
:10002000000000000000000000000000352C000867
:100030002B07000800000000BD2B00082D2F000832
:10004000C3010008C3010008C3010008C301000880
:10005000C3010008C3010008C3010008C301000870
:1000600049070008C3010008C3010008C3010008D4
:10007000C3010008C3010008C3010008C301000850
:10008000C3010008C3010008C3010008C301000840
:10009000C3010008C3010008C3010008C301000830
:1000A000C3010008C3010008C3010008C301000820
:1000B000C3010008C3010008C3010008C301000810
:1000C000C3010008C3010008C3010008C301000800
:1000D000C3010008893A0008C3010008C3010008F1
:1000E0002D070008C3010008C3010008C301000870
:1000F000C3010008C3010008C3010008C3010008D0
:10010000C30100080000000000000000C301000857
:10011000C3010008C3010008C3010008C3010008AF
:10012000C3010008C3010008C3010008C30100089F
:10013000C3010008C3010008000000000000000027
:10014000C3010008C3010008C3010008000000004B
:10015000000000000000000000000000000000009F
:10016000C3010008C3010008C3010008C30100085F
:10017000C3010008C3010008C3010008C30100084F
:10018000C3010008C30100080000000000000000D7
:10019000C3010008DFF80CD000F052FA0048004715
:1001A000F93C0008700600200648804706480047D2
:1001B000FEE7FEE7FEE7FEE7FEE7FEE7FEE7FEE717
:1001C000FEE7FEE7F12F000895010008202A04DB76
:1001D000203A21FA02F00021704721FA02F3D040C0
:1001E000C2F120029140084319467047421C10F8A2
:1001F000011B0029FBD1801A704770B5064603F039
:10020000B7FC046805460A220021304600F082F956
:100210002C6070BD2DE9FE4F804681EA0300C00FBF
:100220000C46009021F0004123F00045B8EB02009D
:10023000A94105D24046214690461C460B4602463F
:1002400023F00040104347D0270DC7F30A00C3F343
:100250000A510290401A019040286BDAC3F3130050
:1002600040F4801B0098924620B10023D2EB030A91
:1002700063EB0B0B01985946C0F14002504600F069
:1002800028F906460D4650465946019A00F030F9C5
:1002900010EB08006141002487EA115284EAE773F9
:1002A0001A4340D0009A62B3019A012A4FEA0752DA
:1002B00015DC001B61EB02014FF0004202EA07521D
:1002C000CDE90042001C41F5801132462B4600F07A
:1002D00068F903B0BDE8F08F40462146F9E7001BFE
:1002E00061EB0201001C41F5801300185B412018EE
:1002F000A2F5001747EB030140EAD570B6196D412E
:1003000011E06D084FEA360645EAC0754FEA07521C
:10031000001B61EB0201001C41F5801149084FEA06
:1003200030000019514132462B4603B0BDE8F04F72
:1003300000F028B90098012240000023D0EB02020F
:1003400063EBE073009821464FEAE074B8EB0000DD
:1003500061EB0401E9E783F000435BE781F00041D2
:1003600058E72DE9FE4F81EA030404F0004421F030
:10037000004100944FF0000B23F0004350EA0104C9
:100380005ED052EA03045BD0C3F30A54C1F30A55AA
:100390002C44A4F2F3340194A0FB0254C1F31301E2
:1003A00041F48011C3F3130343F4801301FB0244AF
:1003B00000FB034E840A970A44EA815447EA8357B4
:1003C000A4FB076802958D0A05FB07854FEA932C6D
:1003D00004FB0C542705029D4FEA065847EA1637DE
:1003E000B5EB08056EEB070C870E920E47EA8117F6
:1003F00042EA8312A7FB0201B6EB0B0164EB000497
:100400002B0D43EA0C335E1844EB1C50DA46514680
:10041000E7FB0201C5F313044FEA0B3343EA14531D
:100420004FEA0432019C43EA0603A4F10C0402944F
:10043000009CCDE900B400F0B4F803B0BDE8F08F43
:1004400000200146F9E70EB5C10F80EAE0700844CC
:10045000CA07002140F233438DE80E000A460B46DE
:1004600000F09FF803B000BD70B5C1F30A5201F06F
:1004700000450024C1F3130140F2FF3341F4801121
:100480009A4201DA002070BD40F233439A42A2F250
:10049000334203DC5242FFF799FE00E090402C43C8
:1004A000F1D0404270BD30B50B46014600202022FD
:1004B000012409E021FA02F59D4205D303FA02F571
:1004C000491B04FA02F52844151EA2F10102F1DCD1
:1004D00030BD202A04DB203A00FA02F100207047E8
:1004E0009140C2F1200320FA03F319439040704772
:1004F000202A06DBCB17203A41FA02F043EAE073E8
:1005000006E041FA02F3D040C2F1200291400843D4
:10051000194670472DE9F04791460F46804604463C
:10052000002614F8015B2DB100F09CF80068405DD6
:10053000C007F6D12B2D02D02D2D18D0641E4A46AF
:100540003946204600F092F827B13968A14201D11E
:10055000C7F8008071054FF002040BD54042002817
:1005600003DD03F005FB0460A007BDE8F08746F457
:100570008066E4E70028F8DA03F0FAFA04606FF026
:100580000040F2E710B5141E73F1000408DA401CB5
:1005900041F1000192185B411A4301D120F00100A2
:1005A00010BD2DE9F04D92469B4611B1B1FA81F292
:1005B00002E0B0FA80F220329046FFF78AFF04464C
:1005C0000F4640EA0A0041EA0B0153465A460843E7
:1005D00013D0114653EA010019D0C8F14002504629
:1005E000FFF7F4FD05460E46504659464246FFF7D2
:1005F00070FF084305D0012004E020463946BDE8DD
:10060000F08D0020054346EAE0762C4337430A98F4
:100610006305E40AA0EB08000022FD0A44EA4754FF
:100620000A3002D500200146E9E7010510196941A9
:10063000DDE9084500196941BDE8F04DA2E7000079
:10064000064C074D06E0E06840F0010394E807001F
:1006500098471034AC42F6D3FFF7A0FDE040000805
:100660000041000800487047DC4000082DE9F05FB9
:1006700082460078002715468B460AF10104B946E8
:10068000302801D09DB113E014F8010B0127782820
:1006900003D0582801D045B10AE00DB1102D07D183
:1006A0000027102514F8010B02E0082500E00A25B8
:1006B0000026B0460EE005FB080005FB06F1012709
:1006C00001EB10461FFA80F8B6F5803F00D3B9461B
:1006D00014F8010B294600F018F80028EBDABBF1FA
:1006E000000F05D00FB1641E00E05446CBF8004067
:1006F000B9F1000F06D003F03BFA02210160C81ED9
:10070000BDE8F09F48EA0640FAE73A2800D23038C0
:1007100020F02002412A01D3A2F13700884201D300
:100720004FF0FF30704700BFFEE7704710B5012063
:1007300004490860800200F027F84FF4005000F0F0
:1007400023F810BD0401002010B501200249086003
:10075000042000F019F810BD0801002070B504460F
:1007600000F01AF906462546681C10B104480078C6
:10077000054400BF00F010F9801BA842FAD370BDF9
:10078000F40000207047000010B5044604480068DB
:10079000204020B1024804602046FFF7F3FF10BD5F
:1007A0001404014078B50346002200240020D5E05F
:1007B000012696400D6805EA0604002C72D04D68AB
:1007C000022D02D04D68122D13D1D60803F1200559
:1007D00055F826005507EE0E0F25B540A8435607DD
:1007E000F60E0D69B5402843D60803F1200545F8FB
:1007F0002600186856000325B540A8430D7905F07A
:1008000003055600B540284318604D68012D08D0F7
:100810004D68022D05D04D68112D02D04D68122D66
:1008200013D1986856000325B540A8435600CD68FB
:10083000B54028439860586801259540A8430D7934
:10084000C5F30015954028435860D8685600032525
:10085000B540A84356008D68B5402843D8604D6820
:1008600005F08055B5F1805F77D100BF3E4DAD6991
:1008700045F001053C4EB5613546AD6905F0010511
:10088000009500BF00BF4FEAB635960855F8260020
:1008900095072E0F0F25B540A843B3F1904F02D115
:1008A00000251FE059E0314DAB4201D1012519E08F
:1008B0002F4DAB4201D1022514E02E4DAB4201D1A8
:1008C00003250FE02C4DAB4201D104250AE02B4D4E
:1008D000AB4201D1052505E0294DAB4201D10625EA
:1008E00000E007259607360FB5402843254D9608AA
:1008F00045F82600244D2868A0434D6805F480354E
:10090000B5F5803F00D120431F4D28602D1D28687C
:10091000A0434D6805F40035B5F5003F00D12043F4
:10092000194D2D1D28602D1D2868A0434D6805F424
:100930008015B5F5801F00D12043134D0835286080
:100940002D1D2868A0434D6805F40015B5F5001F5E
:1009500000D120430C4D0C352860521C0D68D54049
:10096000002D7FF425AF78BD001002400004004840
:1009700000080048000C004800100048001400481F
:100980000018004808000140000401400AB18161DC
:1009900000E0816270470000014800687047000075
:1009A000EC00002003480068034909780844014925
:1009B00008607047EC000020F400002010B50848E3
:1009C000006840F0100006490860032000F0C4F8F9
:1009D000002000F007F800F02BF8002010BD000008
:1009E0000020024070B504460E4800784FF47A713A
:1009F000B1FBF0F00C490968B1FBF0F5284601F0B5
:100A000080F908B1012070BD102C07D200222146C8
:100A1000501E00F062F80548046001E00120F2E792
:100A20000020F0E7F4000020F8000020F000002093
:100A300008B500BF2148806940F001001F49886166
:100A40000846806900F00100009000BF00BF00BFB1
:100A50000846C06940F08050C8610846C06900F08F
:100A60008050009000BF00BF072000F075F8002202
:100A700011466FF00B0000F030F8002211466FF0C5
:100A80000A0000F02AF8002211466FF0090000F079
:100A900024F800221146501F00F01FF800221146D2
:100AA000101F00F01AF800221146901E00F015F8F1
:100AB00000221146501E00F010F808BD0010024040
:100AC00000BF00F01F02012191404209920002F193
:100AD000E022C2F8001100BF70472DE9F05F8046A8
:100AE0000D461646002702F04DF8074639462A46BD
:100AF000334601F00700C0F1070ABAF1040F02D92A
:100B00004FF0040A01E0C0F1070AD14600F1040ADF
:100B1000BAF1070F02D24FF0000A01E0A0F1030A78
:100B2000D4464FF0010A0AFA09FAAAF1010A0AEAC0
:100B3000020A0AFA0CFA4FF0010B0BFA0CFBABF1AC
:100B4000010B0BEA030B4AEA0B042146404602F074
:100B500021F8BDE8F09F000000BF00F00702064B3F
:100B600019684FF6FF031940044B0B4343EA022177
:100B7000014B196000BF70470CED00E00000FA0562
:100B8000F8B5044600260025206800F48030B0F552
:100B9000803F75D10027E248C06900F0805070B9ED
:100BA00000BFDF48C06940F08050DD49C861084699
:100BB000C06900F08050009000BF00BF0127D948F5
:100BC000006800F48070B0B9D648006840F48070C6
:100BD000D4490860FFF7E0FE064606E0FFF7DCFEBA
:100BE000801B642801D90320F8BDCE48006800F4BA
:100BF00080700028F2D0CA48006A00F44075002DC9
:100C00006CD0A08800F44070A84267D0C448006A45
:100C100020F440750120010491FAA1F1B1FA81F1AB
:100C2000C14A02EB8101C1F8000400204FF4803179
:100C300091FAA1F1B1FA81F102EB8101C1F800044E
:100C4000B748056205F00100B8B3FFF7A5FE0646F8
:100C500008E0FFF7A1FE801B41F28831884201D9EC
:100C60000320C1E74020022191FAA1F1B1FA81F1FC
:100C700008430121B1EB601F03D1A94800681FE0C0
:100C80003CE04020022191FAA1F1B1FA81F1084340
:100C90000221B1EB601F02D1A148006A10E04020A0
:100CA000022191FAA1F1B1FA81F108430421B1EBDB
:100CB000601F03D19A48406802E00FE09848406AFC
:100CC0004021022292FAA2F2B2FA82F2114301F01A
:100CD0001F020121914008400028BAD09048006AC4
:100CE00020F44070616808438D490862012F04D1E7
:100CF0000846C06920F08050C86100BF207800F02D
:100D0000010038B18648006B20F00300A168084359
:100D100083490863207800F00200022807D1804848
:100D2000006B20F44030E16808437D490863207877
:100D300000F00400042807D17948006B20F440201B
:100D40002169084376490863207800F020002028B4
:100D500007D17348006B20F01000E1690843704927
:100D60000863206800F40030B0F5003F07D16C48FC
:100D7000406820F48000616D08436949486020782C
:100D800000F04000402807D16548006B20F02000AB
:100D9000216A084362490863206800F48020B0F5A6
:100DA000802F07D15E48006B20F04000616A084345
:100DB0005B490863207800F00800082807D15848EC
:100DC000006B20F44010616908435549086320789E
:100DD00000F01000102807D15148006B20F44000AB
:100DE000A16908434E490863208800F40070B0F5FB
:100DF000007F07D14A48406820F40000216B084377
:100E000047494860207800F08000802807D1444896
:100E1000C06A20F4F870A16A08434149C86220887A
:100E200000F48070B0F5807F07D13D48C06A20F49F
:100E30007850E16A08433A49C862208800F480503B
:100E4000B0F5805F07D13648006B20F48070616B8D
:100E5000084333490863208800F40050B0F5005F70
:100E600007D12F48006B20F40070216C08432C49F7
:100E70000863206800F48010B0F5801F07D128486F
:100E8000006B20F08070A16B08432549086320683F
:100E900000F40010B0F5001F07D12148006B20F0CE
:100EA0000070E16B08431E490863206800F480006D
:100EB000B0F5800F07D11A48006B20F48060616C98
:100EC000084317490863206800F40000B0F5000FDC
:100ED00007D11348006B20F40060A16C084310494F
:100EE0000863206800F08070B0F1807F07D10C4863
:100EF000006B20F40050E16C084309490863206846
:100F000000F00070B0F1007F07D10548006B20F4BD
:100F10000040216D084302490863002064E6000098
:100F200000100240007000400000424270B50446CC
:100F30000D4600260CB9012070BDA248006800F0E3
:100F40000700A8420ED29F48006820F007002843FF
:100F50009C4908600846006800F00700A84201D0DC
:100F60000120E9E7207800F00200022807D1964826
:100F7000406820F0F000A168084393494860207859
:100F800000F0010000287CD0606801283BD12020BF
:100F9000010391FAA1F1B1FA81F108430121B1EB0A
:100FA000601F02D1884800681DE02020010391FAEB
:100FB000A1F1B1FA81F108430221B1EB601F02D126
:100FC0008148006A0FE02020010391FAA1F1B1FAF3
:100FD00081F108430421B1EB601F02D17A484068D7
:100FE00001E07948406A20210A0392FAA2F2B2FA9B
:100FF00082F2114301F01F020121914008400028B4
:101000007CD1012098E7606802283BD120200105AF
:1010100091FAA1F1B1FA81F108430121B1EB601F0E
:1010200002D1694800681DE02020010591FAA1F174
:10103000B1FA81F108430221B1EB601F02D162488D
:10104000006A0FE02020010591FAA1F1B1FA81F1C7
:1010500008430421B1EB601F02D15B48406801E006
:101060005948406A20210A0592FAA2F2B2FA82F2A5
:10107000114301F01F02012191400840E8BB01200B
:101080005AE758E02020022191FAA1F1B1FA81F14A
:1010900008430121B1EB601F02D14B4800681DE0FD
:1010A0002020022191FAA1F1B1FA81F10843022135
:1010B000B1EB601F02D14448006A0FE020200221FA
:1010C00091FAA1F1B1FA81F108430421B1EB601F5B
:1010D00002D13D48406801E03B48406A202102229D
:1010E00092FAA2F2B2FA82F2114301F01F02012138
:1010F0009140084008B901201EE7FFE732484068E8
:1011000020F00300616808432F494860FFF744FC62
:10111000064608E0FFF740FC801B41F28831884218
:1011200001D9032008E72848406800F00C006168F6
:10113000B0EB810FEED12348006800F00700A84211
:101140000ED92048006820F0070028431D49086098
:101150000846006800F00700A84201D00120EBE635
:10116000207800F00400042807D11748406820F4D4
:10117000E060E168084314494860207800F0080006
:10118000082808D11048406820F46050216940EADE
:10119000C1000D49486000F04FF80B49496801F063
:1011A000F001F02292FAA2F2B2FA82F2D140074A9A
:1011B000515CC840064908600020FFF713FC00207E
:1011C000BAE6000000200240001002404040000843
:1011D000F80000200148006870470000F800002077
:1011E00000B5FFF7F7FF0749496801F4E0614FF4E4
:1011F000E06292FAA2F2B2FA82F2D140024A515C63
:10120000C84000BD001002405040000800B5FFF784
:10121000E1FF0749496801F460514FF4605292FAC6
:10122000A2F2B2FA82F2D140024A515CC84000BD3B
:10123000001002405040000870B500210022002438
:10124000002300201D4D696801F00C057DB3042DBD
:1012500002D0082D2CD101E019482CE001F47015C2
:101260004FF4701696FAA6F6B6FA86F6F540154EC5
:10127000735D124DED6A05F00F050F2696FAA6F67E
:10128000B6FA86F6F540104E725D01F48035B5F57C
:10129000803F05D10A4DB5FBF2F505FB03F404E0F0
:1012A000074DB5FBF2F505FB03F4204603E000E033
:1012B00000BF034800BF00BF70BD00000010024027
:1012C00000127A002040000830400008F8B50446BB
:1012D0000CB90120F8BD207800F0010000287BD077
:1012E000FD48406800F00C0004280CD0FA48406823
:1012F00000F00C00082845D1F748406800F4C030E1
:10130000B0F5803F3ED12020010391FAA1F1B1FA5E
:1013100081F108430121B1EB601F02D1EE48006862
:101320001DE02020010391FAA1F1B1FA81F10843F7
:101330000221B1EB601F02D1E748006A0FE02020D4
:10134000010391FAA1F1B1FA81F108430421B1EB53
:10135000601F02D1E048406801E0DF48406A202178
:101360000A0392FAA2F2B2FA82F2114301F01F02CA
:101370000121914008400028B1D0606800282BD19D
:101380000120A7E700BF6068B0F5803F06D1D248D2
:10139000006840F48030D049086029E0606858B99E
:1013A000CD48006820F48030CB49086008460068CA
:1013B00020F4802008601BE06068B0F5A02F0CD1FD
:1013C000C548006840F48020C349086008460068AA
:1013D00040F4803008600BE099E0BF48006820F4DA
:1013E0008030BD4908600846006820F4802008600D
:1013F00000BF6068A0B3FFF7CFFA054606E0FFF72D
:10140000CBFA401B642801D9032063E720200103A5
:1014100091FAA1F1B1FA81F108430121B1EB601F0A
:1014200002D1AD4800681EE02020010391FAA1F12D
:10143000B1FA81F108430221B1EB601F02D1A64845
:10144000006A10E02020010391FAA1F1B1FA81F1C4
:1014500008430421B1EB601F03D19F48406802E0BC
:1014600010E09D48406A20210A0392FAA2F2B2FAE3
:1014700082F2114301F01F0201219140084000282F
:10148000BDD044E0FFF788FA054606E0FFF784FA8E
:10149000401B642801D903201CE72020010391FA96
:1014A000A1F1B1FA81F108430121B1EB601F02D132
:1014B000894800681DE02020010391FAA1F1B1FAEA
:1014C00081F108430221B1EB601F02D18248006A1A
:1014D0000FE02020010391FAA1F1B1FA81F1084354
:1014E0000421B1EB601F02D17B48406801E07A48DB
:1014F000406A20210A0392FAA2F2B2FA82F2114360
:1015000001F01F020121914008400028BED120783F
:1015100000F0020002285DD16F48406800F00C0026
:1015200060B16D48406800F00C00082853D16A484B
:10153000406800F4C030B0F5004F4CD120200221AB
:1015400091FAA1F1B1FA81F108430121B1EB601FD9
:1015500002D1614800681DE02020022191FAA1F12A
:10156000B1FA81F108430221B1EB601F02D15A4860
:10157000006A0FE02020022191FAA1F1B1FA81F175
:1015800008430421B1EB601F02D15348406801E0D9
:101590005148406A2021022292FAA2F2B2FA82F263
:1015A000114301F01F0201219140084020B1E06881
:1015B000012801D001208DE64748006820F0F8009E
:1015C000F82292FAA2F2B2FA82F22169914008431B
:1015D00041490860B0E0E068E0B3012090FAA0F172
:1015E000B1FA81F13D4A42F82100FFF7D5F90546ED
:1015F00006E0FFF7D1F9401B022801D9032069E674
:101600002020022191FAA1F1B1FA81F108430121D0
:10161000B1EB601F02D1304800681EE0202002219B
:1016200091FAA1F1B1FA81F108430221B1EB601FF7
:1016300002D12948006A10E02020022191FAA1F18C
:10164000B1FA81F108430421B1EB601F03D12248B4
:10165000406802E01EE02048406A2021022292FAFF
:10166000A2F2B2FA82F2114301F01F02012191406D
:1016700008400028BDD01848006820F0F800F82283
:1016800092FAA2F2B2FA82F2216991400843124919
:10169000086051E00020012191FAA1F1B1FA81F135
:1016A0000E4A42F82100FFF777F9054606E0FFF7FA
:1016B00073F9401B022801D903200BE620200221E8
:1016C00091FAA1F1B1FA81F108430121B1EB601F58
:1016D00006D10148006821E00010024000004242AB
:1016E0002020022191FAA1F1B1FA81F108430221EF
:1016F000B1EB601F02D1F848006A0FE02020022100
:1017000091FAA1F1B1FA81F108430421B1EB601F14
:1017100002D1F148406801E0EF48406A20210222EE
:1017200092FAA2F2B2FA82F2114301F01F020121F1
:10173000914008400028BAD1207800F0080008281D
:1017400051D1606980B3012090FAA0F1B1FA81F122
:10175000E24A02EB8101C1F88004FFF71DF905465A
:1017600006E0FFF719F9401B022801D90320B1E573
:101770006020022191FAA1F1B1FA81F1084301211F
:10178000B1EB601F02D1D44800681EE06020022146
:1017900091FAA1F1B1FA81F108430221B1EB601F86
:1017A00003D1CD48006A10E01EE06020022191FACA
:1017B000A1F1B1FA81F108430421B1EB601F02D11C
:1017C000C548406801E0C448406A6021022292FA9C
:1017D000A2F2B2FA82F2114301F01F0201219140FC
:1017E00008400028BDD04FE00021012090FAA0F071
:1017F000B0FA80F0B94A02EB8000C0F88014FFF71D
:10180000CBF8054606E0FFF7C7F8401B022801D9D0
:1018100003205FE56020022191FAA1F1B1FA81F184
:1018200008430121B1EB601F02D1AB4800681DE005
:101830006020022191FAA1F1B1FA81F1084302215D
:10184000B1EB601F02D1A448006A0FE060200221C2
:1018500091FAA1F1B1FA81F108430421B1EB601FC3
:1018600002D19D48406801E09B48406A6021022205
:1018700092FAA2F2B2FA82F2114301F01F020121A0
:10188000914008400028BED1207800F004000428D0
:1018900073D100269048C06900F0805070B900BF35
:1018A0008D48C06940F080508B49C8610846C069C6
:1018B00000F08050009000BF00BF012688480068FB
:1018C00000F48070B0B98648006840F480708449A4
:1018D0000860FFF761F8054606E0FFF75DF8401B7A
:1018E000642801D90320F5E47D48006800F4807085
:1018F0000028F2D000BFA068012806D17648006A0F
:1019000040F001007449086227E0A06858B97248A5
:10191000006A20F00100704908620846006A20F061
:101920000400086219E0A06805280BD16A48006A23
:1019300040F00400684908620846006A40F001006F
:1019400008620AE06448006A20F001006249086207
:101950000846006A20F00400086200BFA068B8B31F
:10196000FFF71AF8054609E0FFF716F8401B41F2A9
:101970008831884202D90320ACE48BE04020022168
:1019800091FAA1F1B1FA81F108430121B1EB601F95
:1019900002D1514800681EE04020022191FAA1F1D5
:1019A000B1FA81F108430221B1EB601F02D14A482C
:1019B000006A10E04020022191FAA1F1B1FA81F110
:1019C00008430421B1EB601F03D14348406802E0A3
:1019D00010E04148406A4021022292FAA2F2B2FA93
:1019E00082F2114301F01F020121914008400028BA
:1019F000BAD046E0FEF7D0FF054608E0FEF7CCFF80
:101A0000401B41F28831884201D9032062E4402022
:101A1000022191FAA1F1B1FA81F108430121B1EB60
:101A2000601F02D12C4800681DE04020022191FA7D
:101A3000A1F1B1FA81F108430221B1EB601F02D19B
:101A40002548006A0FE04020022191FAA1F1B1FA85
:101A500081F108430421B1EB601F02D11E484068A8
:101A600001E01D48406A4021022292FAA2F2B2FA35
:101A700082F2114301F01F02012191400840002829
:101A8000BCD1012E05D11448C06920F08050124904
:101A9000C86100BFA06900287ED00F48406800F0F0
:101AA0000C00082879D0A069022877D100204FF0D7
:101AB000807191FAA1F1B1FA81F1084A42F821004E
:101AC000FEF76AFF05460DE0FEF766FF401B0228A1
:101AD00008D9032055E400000010024000004242F3
:101AE000007000402020010591FAA1F1B1FA81F1C6
:101AF00008430121B1EB601F02D1754800681DE069
:101B00002020010591FAA1F1B1FA81F108430221E7
:101B1000B1EB601F02D16E48006A0FE02020010582
:101B200091FAA1F1B1FA81F108430421B1EB601FF0
:101B300002D16748406801E06548406A20210A05F3
:101B400092FAA2F2B2FA82F2114301F01F020121CD
:101B5000914008400028B7D100BF5D48C06A20F01E
:101B60000F00616A08435A49C862D4E90710084364
:101B70005749496821F4761108435549486000BF28
:101B80000120010691FAA1F1B1FA81F1514A42F81E
:101B90002100FEF701FF02E097E094E043E00546F4
:101BA00006E0FEF7F9FE401B022801D903202CE4D1
:101BB0002020010591FAA1F1B1FA81F10843012138
:101BC000B1EB601F02D1424800681DE020200105F2
:101BD00091FAA1F1B1FA81F108430221B1EB601F42
:101BE00002D13B48006A0FE02020010591FAA1F1E3
:101BF000B1FA81F108430421B1EB601F02D13448EE
:101C0000406801E03248406A20210A0592FAA2F2B7
:101C1000B2FA82F2114301F01F0201219140084003
:101C20000028BED051E000204FF0807191FAA1F160
:101C3000B1FA81F1274A42F82100FEF7ADFE0546D0
:101C400006E0FEF7A9FE401B022801D9032023E489
:101C50002020010591FAA1F1B1FA81F10843012197
:101C6000B1EB601F02D11A4800681DE02020010579
:101C700091FAA1F1B1FA81F108430221B1EB601FA1
:101C800002D11348006A0FE02020010591FAA1F16A
:101C9000B1FA81F108430421B1EB601F02D10C4875
:101CA000406801E00A48406A20210A0592FAA2F23F
:101CB000B2FA82F2114301F01F0201219140084063
:101CC0000028BED101E0012075E4002073E400008B
:101CD0000010024000004242042808D14FF0E021E9
:101CE000096941F004014FF0E022116107E04FF073
:101CF000E021096921F004014FF0E02211617047F1
:101D0000704770B504462546681EB0F1807F01D348
:101D100001200FE0681E4FF0E02148610F214FF0D5
:101D2000FF3000F037FF00204FF0E02188610720EE
:101D30000861002070BD10B5FFF7E2FF10BD000084
:101D400010B50346002200BF93F83C00012801D1E2
:101D5000022010BD012083F83C0000BF22F0FF00EC
:101D6000CC6840EA040222F440708C6840EA040225
:101D700022F480604C6840EA040222F400600C689F
:101D800040EA040222F480500C6940EA040222F482
:101D900000504C6940EA040222F480408C6A40EA18
:101DA000040222F400408C6A40EA040222F470200B
:101DB0000C8B40EA0442124C1868A04207D0114C28
:101DC0001868A04203D0104C1868A0420ED122F42B
:101DD00070008C8C40EA045222F08070CC6940EA9A
:101DE000040222F000700C6A40EA0402186842649F
:101DF00000BF002083F83C0000BF00BFA9E700003F
:101E0000002C0140003401400050014030B5024632
:101E10000B4600BF92F83C00012801D1022030BDE2
:101E2000012082F83C0000BF106841681068846897
:101E3000114D1068A84207D0104D1068A84203D079
:101E40000F4D1068A84203D121F470015868014376
:101E500021F070011868014324F08004986804435D
:101E6000106841601068846000BF002082F83C0068
:101E700000BF00BFD3E70000002C01400034014048
:101E80000050014010B504460CB9012010BD94F873
:101E90003D0028B9002084F83C00204600F00CF8F2
:101EA000022084F83D00211D206801F0DFF80120A8
:101EB00084F83D000020E9E708B50168B1F1804FE2
:101EC0000DD100BF0649C96941F00101044AD16141
:101ED0001146C96901F00101009100BF00BF08BDB2
:101EE000001002402DE9F04104460D46002600BFD7
:101EF00094F83C00012802D10220BDE8F0810120C5
:101F000084F83C0000BF022084F83D002068866809
:101F10004148064026F47F4620688660286850289D
:101F20003CD00CDC202861D004DC002854D01028E0
:101F300066D156E030285ED0402861D142E060286A
:101F400036D070280ED0B0F5805F03D0B0F5005FBA
:101F500056D116E0206880682F497031084021680A
:101F600088604EE0D5E902136A68206801F0F6F84F
:101F7000206886682848064046F077062068866014
:101F80003FE0D5E902136A68206801F0E7F82068AD
:101F9000806840F480402168886032E0EA686968BF
:101FA000206801F0E1FA5021206801F0E3F828E010
:101FB000EA686968206801F0ECFA6021206801F0A5
:101FC000D9F81EE0EA686968206801F0CDFA40217E
:101FD000206801F0CFF814E00021206801F0CAF871
:101FE0000FE01021206801F0C5F80AE020212068E8
:101FF00001F0C0F805E03021206801F0BBF800E0F6
:1020000000BF00BF012084F83D0000BF002084F81D
:102010003C0000BF00BF70E788FFFEFF10B586B030
:1020200004461449206888420FD14FF44070019053
:10203000022002900020039004900620059001A940
:102040004FF09040FEF7AEFB11E02068B0F1804FFA
:102050000DD14FF400600190022002900020039007
:1020600004900120059001A90348FEF79BFB06B0F0
:1020700010BD0000002C01400004004870B504466B
:102080000D46164600BF94F83C00012801D10220FD
:1020900070BD012084F83C0000BF022084F83D00A0
:1020A0000C2E51D005DC4EB1042E1ED0082E7AD154
:1020B00033E0102E60D0142EF9D175E02946206847
:1020C00001F062F82068806940F0080021688861AA
:1020D0002068806920F00400216888612068806998
:1020E000296908432168886177E02946206801F062
:1020F000ADF82068806940F400602168886120683C
:10210000806920F48060216888612068806929697D
:1021100040EA0120216888615FE02946206801F0DB
:10212000FBF82068C06940F008002168C861206899
:10213000C06920F004002168C8612068C06929696D
:1021400008432168C86148E02946206801F04AF93F
:102150002068C06940F400602168C8612068C069D7
:1021600020F480602168C8612068C069296940EA5C
:1021700001202168C86130E02946206801F074F927
:102180002068406D40F00800216848652068406D77
:1021900020F00400216848652068406D29690843E3
:1021A0002168486519E017E02946206801F09CF98C
:1021B0002068406D40F40060216848652068406DEB
:1021C00020F48060216848652068406D296940EAF4
:1021D00001202168486500E000BF00BF012084F8AD
:1021E0003D0000BF002084F83C0000BF00BF4FE767
:1021F00010B504460CB9012010BD94F83D0028B973
:10220000002084F83C00204600F00CF8022084F8FE
:102210003D00211D206800F029FF012084F83D00C9
:102220000020E9E708B5094A016891420DD100BFD5
:102230000749896941F40061054A9161114689693C
:1022400001F40061009100BF00BF08BD002C0140F7
:102250000010024030B504460D4601222946206890
:1022600000F06EFF14492068884213D0134920689B
:1022700088420FD01249206888420BD0114920684B
:10228000884207D010492068884203D00F4920684F
:10229000884201D1012000E0002028B12068406C74
:1022A00040F40040216848642068006840F0010064
:1022B00021680860002030BD002C0140003401403E
:1022C00000400140004401400048014000500140EE
:1022D00010B504460CB9012010BDA06900B100E0A2
:1022E00000BF94F8690028B9002084F868002046EF
:1022F00000F02AF8242084F869002068006820F0A3
:10230000010021680860204601F010FA012800D180
:10231000E2E7606A10B1204601F051F92068406898
:1023200020F49040216848602068806820F02A00EE
:10233000216888602068006840F00100216808601A
:10234000204601F0B8F9C7E710B586B00446214928
:10235000206888421CD100BF1F48806940F480403B
:102360001D4988610846806900F48040009000BFE4
:1023700000BF302001900220029000200390032033
:1023800004900720059001A91448FEF70BFA1FE0FE
:102390001349206888421BD100BF0F48C06940F430
:1023A00000300D49C8610846C06900F40030009053
:1023B00000BF00BF0C20019002200290002003907B
:1023C00004900720059001A94FF09040FEF7EAF92C
:1023D00006B010BD0038014000100240000800485F
:1023E0000044004000BFFEE710B5002280210C48E9
:1023F000FEF7CCFA002240210948FEF7C7FA012275
:1024000020210748FEF7C2FA002210210448FEF7F7
:10241000BDFA00F045F90120FEF7A0F910BD00005B
:102420000004004810B500224FF400510348FEF7A5
:10243000ADFA0120FEF792F910BD0000000400483B
:1024400010B5FFF7EFFF002280211748FEF79EFA34
:10245000002240211448FEF799FA00222021124858
:10246000FEF794FA002210210F48FEF78FFA00F0D1
:1024700017F9002280210C48FEF788FA002240213B
:102480000948FEF783FA002220210748FEF77EFA6A
:10249000012210210448FEF779FA00F001F9032027
:1024A000FEF75CF910BD00000004004810B50122E1
:1024B00051030348FEF76AFA0120FEF74FF910BDF9
:1024C0000004004810B5FFF7ADFF002280211A4834
:1024D000FEF75CFA002240211748FEF757FA002267
:1024E00020211548FEF752FA002210211248FEF76B
:1024F0004DFA00F0D5F8012280210F48FEF746FA88
:10250000012240210C48FEF741FA012220210A480D
:10251000FEF73CFA012210210748FEF737FA00F0D7
:10252000BFF80120FEF71AF90448006840F48070F3
:102530000249086010BD000000040048202C014042
:1025400010B5002280211748FEF720FA0022402112
:102550001448FEF71BFA002220211248FEF716FA53
:10256000002210210F48FEF711FA00F099F800221E
:1025700080210C48FEF70AFA012240210948FEF7A3
:1025800005FA012220210748FEF700FA0022102157
:102590000448FEF7FBF900F083F80120FEF7DEF8AF
:1025A00010BD00000004004810B500F013F8FFF75C
:1025B00039FF00F031F8FFF717FF0121084600F05E
:1025C00031F9FFF73DFFFFF7BBFFFFF77BFF00F09F
:1025D000C1F810BD00B585B04BF2F00000900120AD
:1025E000019000200290039069460A48FEF7DAF84D
:1025F0004FF480600090062004900220019000209B
:102600000290039069464FF09040FEF7CBF805B07A
:1026100000BD00000004004810B51E20FEF79EF823
:1026200000F00EF80520FEF799F800F009F80120F7
:10263000FEF794F800F004F80120FEF78FF810BDC3
:1026400010B5002280211548FEF7A0F90022402194
:102650001248FEF79BF9012220211048FEF796F957
:10266000012210210D48FEF791F900F019F800221F
:1026700080210A48FEF78AF9002240210748FEF728
:1026800085F9002220210548FEF780F9002210215B
:102690000248FEF77BF900F003F810BD0004004883
:1026A00010B5012211030848FEF770F90120FEF76A
:1026B00055F800224FF480510348FEF767F90120D6
:1026C000FEF74CF810BD00000004004800F00801BF
:1026D00031B11F49096841F080011D4A116005E0D0
:1026E0001B49096821F08001194A116000F00401BA
:1026F00031B11749096841F04001154A116005E000
:102700001349096821F04001114A116000F00201EB
:1027100031B10F49096841F020010D4A116005E00F
:102720000B49096821F02001094A116000F00101FC
:1027300031B10749096841F01001054A116005E00F
:102740000349096821F01001014A11607047000037
:10275000140400482248806940F4006020498861E0
:102760002048006820F010001E49086048201D49DC
:102770002831086040F2E730091D086019481C3014
:1027800000681949084017491C310860084600686C
:1027900040F0600008600846006840F008000860EB
:1027A000081D006820F40070091D086008460068D4
:1027B00040F4807008600B484430006840F40040EA
:1027C0000849443108604FF4FA7006493C3108600A
:1027D0000448006840F001000249086070470000AA
:1027E00000100240002C01408FFFFEFF10B5044690
:1027F000FFF75CFE2011FFF769FFFFF751FF04F0C0
:102800000F00FFF763FFFFF74BFF10BD70B50546E4
:102810000E46002403E0285DFFF7E8FF641CB44285
:10282000F9DB70BD70B505460C46FFF7DDFD2DB137
:10283000012280210B48FEF7A9F804E00022802144
:102840000848FEF7A3F82CB1012240210548FEF705
:102850009DF804E0002280210248FEF797F8FFF778
:102860001FFF70BD0004004800B587B000BF3F489F
:10287000406940F400203D4948610846406900F441
:102880000020019000BF00BF00BF0846406940F42F
:10289000800048610846406900F48000019000BF54
:1028A00000BF00BF0846406940F400304861084658
:1028B000406900F40030019000BF00BF00BF08462F
:1028C000406940F4802048610846406900F4802057
:1028D000019000BF00BF002223214FF09040FEF77F
:1028E00055F8002203212248FEF750F84FF400501B
:1028F0000290204803900020049002A91E48FDF792
:1029000051FF2320029001200390002004900590A5
:1029100002A94FF09040FDF745FF032002900120EF
:10292000039000200490059002A91148FDF73AFF9A
:1029300040F204400290114803900020049002A944
:102940000B48FDF72FFF002211460820FEF7C5F8BF
:102950000820FEF7B5F8002211462820FEF7BDF842
:102960002820FEF7ADF807B000BD000000100240BF
:102970000004004800002110000800480000111069
:1029800000B595B03248334908604F2048600021B7
:102990003048816042F21071C160002101614161E3
:1029A0008161FFF725FC20B140F2A7112AA001F0B8
:1029B000C9F8002012901390149012A92548FFF72F
:1029C00025FA20B140F2AF1123A001F0BBF860203E
:1029D0000B9000200C900D900E900F901090119085
:1029E00000220BA91B48FFF749FB20B140F2BB11A5
:1029F00019A001F0A7F804220BA91648FFF73EFB27
:102A000020B14FF4E07114A001F09CF80020009078
:102A100001900290039004904FF400500590002024
:102A2000069007904FF000700890002009900A90DF
:102A300069460848FFF784F920B14FF4E87106A011
:102A400001F080F80348FFF7E9FA15B000BD000077
:102A5000002C0140100100202E2E2F5372632F6D89
:102A600061696E2E6300000000B58FB04FF08040AA
:102A70002749086040F29F50486000212448816047
:102A800040F2E731C160002101618161FFF7FAF98D
:102A900020B140F2E7111FA001F054F84FF480502C
:102AA0000B900BA91A48FFF71DFA20B140F2ED1167
:102AB00018A001F047F81648FFF79AFB20B14FF431
:102AC000F97114A001F03EF8002008900A9008A9BE
:102AD0000F48FFF79BF920B140F2F9110DA001F06A
:102AE00031F86020019000200290039005900C22A4
:102AF00001A90748FFF7C2FA20B140F2022105A060
:102B000001F020F80248FFF789FA0FB000BD00007D
:102B1000500100202E2E2F5372632F6D61696E2E8F
:102B20006300000010B50F480F4908604FF41650BD
:102B3000486000210C488160C16001610C21416145
:102B400000218161C1610162002007494862084695
:102B5000FFF7BEFB20B140F2192104A000F0F2FF04
:102B600010BD000000380140900100202E2E2F5390
:102B700072632F6D61696E2E6300000000BFFEE777
:102B80007047000002480068C0F302207047000050
:102B90000CED00E010B5002807DA0A07140E054A0C
:102BA00000F00F031B1FD45403E00A07130E024A60
:102BB000135410BD18ED00E000E400E07047000081
:102BC000084909680144074A1160114609687829D3
:102BD00001D97821116003490968034A1268116418
:102BE00070470000140000205001002046200449D6
:102BF00008600846006803490968086470470000D7
:102C0000140000205001002008490968091A074AE9
:102C1000116011460968322901D23221116003493D
:102C20000968034A1268116470470000140000200C
:102C300050010020704770B5002400250A26304658
:102C400000F00CF8304600F019F90446204604EB79
:102C5000D0714D10284600F055F870BD2DE9FC47A5
:102C6000814624A103C9CDE9000100202349086061
:102C700039E000242EE04846FDF770FD1DF8040001
:102C8000C0F3C0081DF80400C0F380051DF804005F
:102C9000C0F340071DF8040000F001061848006862
:102CA0004FF63F410840164908600846006840EA70
:102CB000881008600846006840EAC51008600846A9
:102CC000006840EA072008600846006840EA46209D
:102CD0000860641C082CCEDB094800684FF63F41B1
:102CE000084007490860054800680028C1D0BDE8D1
:102CF000FC87000009080A020604050108010020FB
:102D0000140800482DE9FC5F054629A103C9CDE957
:102D100000014FF00A0B002027490860824642E07C
:102D200025480068012802D100F04AF83DE000245F
:102D30002EE05846FDF712FD1DF80400C0F3C0094F
:102D40001DF80400C0F380061DF80400C0F340081D
:102D50001DF8040000F00107184800684FF63F41D5
:102D60000840164908600846006840EA8910086073
:102D70000846006840EAC61008600846006840EA55
:102D8000082008600846006840EA47200860641C84
:102D9000082CCEDB094800684FF63F410840074940
:102DA00008600AF1010AAA45BADB00BFBDE8FC9F32
:102DB00009080A0206040501080100201408004859
:102DC0002DE9FC5F054629A103C9CDE900014FF0BB
:102DD0000A0B002027490860824642E02548006827
:102DE000012802D1FFF78EFF3DE000242EE0584677
:102DF000FDF7B4FC1DF80400C0F3C0091DF8040081
:102E0000C0F380061DF80400C0F340081DF804005C
:102E100000F00107184800684FF63F410840164986
:102E200008600846006840EA8910086008460068A3
:102E300040EAC61008600846006840EA08200860BA
:102E40000846006840EA47200860641C082CCEDB76
:102E5000094800684FF63F410840074908600AF1F9
:102E6000010AAA45BADB00BFBDE8FC9F01050406C4
:102E7000020A080904010020140800482DE9FC4753
:102E8000824626A103C9CDE900014FF000090020C8
:102E9000244908603BE009F1010900242EE00A20E2
:102EA000FDF75CFC1DF80400C0F3C0081DF8040029
:102EB000C0F380051DF80400C0F340071DF80400AE
:102EC00000F00106184800684FF63F4108401649D7
:102ED00008600846006840EA8810086008460068F4
:102EE00040EAC51008600846006840EA072008600C
:102EF0000846006840EA46200860641C082CCEDBC7
:102F0000094800684FF63F410840074908600548F6
:102F100000680028BFD04846BDE8FC8701050406CC
:102F2000020A0809040100201408004810B5FDF742
:102F300039FDFEF700FF10BD10B5A6B002201C90B1
:102F400001201F90102020900220229081031CA8B5
:102F5000C1614FF4E011016200214162FEF7B6F950
:102F600020B14FF4B7711DA000F0ECFD0F201790B9
:102F700002201890002019904FF480601A900020D1
:102F80001B90022117A8FDF7D1FF20B14FF4BE71AD
:102F900012A000F0D7FD1548019000200390049086
:102FA0000E900F9001A8FDF7EBFD20B140F28711C4
:102FB0000AA000F0C7FDFEF70DF94FF47A71B0FBDF
:102FC000F1F42046FEF79DFE0420FEF785FE002268
:102FD0001146501EFDF781FD26B010BD2E2E2F5339
:102FE00072632F6D61696E2E630000000310100084
:102FF0001948006840F470001749086017480068D5
:1030000040F001001549086008464068144908402E
:103010001249486008460068124908400F49086094
:103020000846006820F4802008600846406820F4C4
:10303000FE0048600846C06A20F00F00C8620846DB
:10304000006B094908400549086300208860C803EF
:10305000014980390860704788ED00E000100240A7
:103060000CC07FF8FFFFF6FECCFC00FF10B500227D
:1030700002682B4B98420ED0B0F1804F0BD0294BF9
:10308000984208D0284B984205D0284B984202D04D
:10309000274B984203D122F070024B681A43204B11
:1030A000984217D0B0F1804F14D01E4B984211D0E7
:1030B0001D4B98420ED01D4B98420BD01D4B984291
:1030C00008D01D4B984205D01C4B984202D0184B9B
:1030D000984203D122F44072CB681A4322F0800355
:1030E0004C6943EA040202608B68C3620B68836226
:1030F0000B4B98420ED00D4B98420BD00D4B984283
:1031000008D00D4B984205D00C4B984202D0084B8A
:10311000984201D10B6903630123436110BD000094
:10312000002C014000040040000800400034014031
:10313000005001400040014000440140004801406F
:1031400030B50023012404FA01F3046A9C430462AD
:10315000046A02FA01F52C43046230BD30B50C4616
:103160000021816821F47F4142EA03252543294358
:10317000816030BD0A460021816821F0700142F073
:10318000070319438160704730B5002400220023F3
:10319000056A25F001050562026A43688469244DC9
:1031A0002C4024F003040D682C4322F002028D68A9
:1031B0002A43204DA84200D113E01F4DA84200D160
:1031C0000FE01E4DA84200D10BE01D4DA84200D1DA
:1031D00007E01C4DA84200D103E01B4DA84206D1D8
:1031E00000BF22F00802CD682A4322F00402114DEC
:1031F000A8420ED0104DA8420BD0104DA84208D0C6
:103200000F4DA84205D00F4DA84202D00E4DA84246
:1032100007D123F4807323F400734D692B438D6928
:103220002B43436084614D684563026230BD0000FA
:103230008FFFFEFF002C01400034014000400140A0
:1032400000440140004801400050014030B50024D6
:1032500000220023056A25F010050562026A436812
:103260008469264D2C4024F440740D6844EA0524FA
:1032700022F020028D6842EA0512214DA84200D1B9
:1032800013E0204DA84200D10FE01F4DA84200D10D
:1032900000BF1E4DA84200D100BF1D4DA84200D165
:1032A00000BF1C4DA84207D100BF22F08002CD68AC
:1032B00042EA051222F04002114DA8420ED0114DF3
:1032C000A8420BD0104DA84208D0104DA84205D0FE
:1032D0000F4DA84202D00F4DA84209D123F48063BC
:1032E00023F400634D6943EA85038D6943EA85034E
:1032F000436084614D688563026230BDFF8FFFFECD
:10330000002C0140003401400040014000440140D5
:10331000004801400050014030B500240022002345
:10332000056A25F480750562026A4368C469264D02
:103330002C4024F003040D682C4322F400728D68A5
:1033400042EA0522214DA84200D113E0204DA842B7
:1033500000D10FE01F4DA84200D100BF1E4DA84272
:1033600000D100BF1D4DA84200D100BF1C4DA84296
:1033700007D100BF22F40062CD6842EA052222F4A0
:103380008062124DA8420ED0114DA8420BD0114DB3
:10339000A84208D0104DA84205D0104DA84202D036
:1033A0000F4DA84209D123F4805323F400534D69F3
:1033B00043EA05138D6943EA05134360C4614D6810
:1033C000C563026230BD00008FFFFEFF002C01408C
:1033D00000340140004001400044014000480140E9
:1033E0000050014030B5002200230024056A25F476
:1033F00080550562036A4468C269144D2A4022F46C
:1034000040720D6842EA052223F400538D6843EAB6
:1034100005330F4DA8420ED00E4DA8420BD00E4DD5
:10342000A84208D00D4DA84205D00D4DA84202D0AB
:103430000C4DA84204D124F480444D6944EA85141B
:103440004460C2614D680564036230BDFF8FFFFEBA
:10345000002C014000340140004001400044014084
:10346000004801400050014030B5002400220023F4
:10347000056A25F480350562026A4368446D134D80
:103480002C400D682C4322F400320D8942EA05429B
:103490000F4DA8420ED00F4DA8420BD00E4DA842A2
:1034A00008D00E4DA84205D00D4DA84202D00D4DBA
:1034B000A84204D123F480334D6943EA05234360D5
:1034C00044654D688565026230BD00008FFFFEFFD8
:1034D000002C014000340140004001400044014004
:1034E000004801400050014030B500240022002374
:1034F000056A25F480150562026A4368446D134D20
:103500002C400D6844EA052422F400120D8942EA99
:1035100005520F4DA8420ED00E4DA8420BD00E4DB5
:10352000A84208D00D4DA84205D00D4DA84202D0AA
:103530000C4DA84204D123F480234D6943EA85232E
:10354000436044654D68C565026230BDFF8FFFFE74
:10355000002C014000340140004001400044014083
:10356000004801400050014030B50B461446002190
:103570000022026A056A25F001050562816921F0D1
:10358000F00141EA041122F00A021A438161026249
:1035900030BD30B50B46144600210022056A25F0E7
:1035A000100505628169026A21F4704141EA043123
:1035B00022F0A00242EA03128161026230BD90F85B
:1035C000241001F0010139B10168496821F400318A
:1035D000826A11430268516090F8241001F00201E0
:1035E000022907D10168496821F48031C26A114378
:1035F0000268516090F8241001F00401042907D1F9
:103600000168496821F48021026B1143026851600E
:1036100090F8241001F00801082907D101684968D1
:1036200021F40041426B11430268516090F824106C
:1036300001F01001102907D10168896821F4805137
:10364000826B11430268916090F8241001F0200110
:10365000202907D10168896821F40051C26B114308
:103660000268916090F8241001F04001402913D1C4
:103670000168496821F48011026C114302685160AD
:10368000016CB1F5801F07D10168496821F4C001C0
:10369000426C11430268516090F8241001F08001DF
:1036A000802907D10168496821F40021826C114307
:1036B00002685160704738B5044600250020E06676
:1036C000FDF76AF905462068006800F00800082840
:1036D0000CD16FF07E402B4600224FF40011009079
:1036E000204600F09BF908B1032038BD206800682F
:1036F00000F0040004280CD16FF07E402B4600221D
:103700004FF480010090204600F088F908B10320B2
:10371000EBE7202084F8690084F86A0000BF0020ED
:1037200084F8680000BF00BFDFE700002DE9F04724
:103730000446002510260027A846A9462169A0684E
:10374000084361690843E16940EA010520680068AF
:10375000A94908402843216808602068406820F48F
:103760004050E168084321684860216AA06940EA46
:1037700001052068806820F4306028432168886053
:1037800000BF9E492068884216D19D48006B00F01A
:10379000030030B1012808D0022808D0032808D13E
:1037A00001E0012607E0022605E0042603E00826E2
:1037B00001E0102600BF78E092492068884219D1C4
:1037C0008F48006B00F4403048B1B0F5803F0AD01C
:1037D000B0F5003F09D0B0F5403F08D101E0002628
:1037E00007E0022605E0042603E0082601E0102693
:1037F00000BF5AE084492068884219D18048006B94
:1038000000F4402048B1B0F5802F0AD0B0F5002F69
:1038100009D0B0F5402F08D101E0002607E00226CC
:1038200005E0042603E0082601E0102600BF3CE086
:1038300076492068884219D17148006B00F4401025
:1038400048B1B0F5801F0AD0B0F5001F09D0B0F51F
:10385000401F08D101E0002607E0022605E004260B
:1038600003E0082601E0102600BF1EE0684920683A
:10387000884219D16248006B00F4400048B1B0F5AD
:10388000800F0AD0B0F5000F09D0B0F5400F08D175
:1038900001E0002607E0022605E0042603E00826F2
:1038A00001E0102600BF00E0102600BFE069B0F57F
:1038B000004F52D1042E2BD005DC4EB1012E12D078
:1038C000022E3BD11AE0082E2DD0102E36D136E034
:1038D000FDF786FC4000616800EB5100B0FBF1F0A1
:1038E0001FFA80F82EE0FDF791FC4000616800EBC4
:1038F0005100B0FBF1F01FFA80F823E04549606801
:1039000001EB50006168B0FBF1F01FFA80F819E09C
:10391000FDF792FC4000616800EB5100B0FBF1F054
:103920001FFA80F80EE04FF48031606801EB500020
:103930006168B0FBF1F01FFA80F803E000BF4FF0C0
:10394000010900BF00BF4FF6F07008EA0007C8F396
:10395000420007432068C7604AE0042E2CD005DCF3
:103960004EB1012E12D0022E3DD11AE0082E2ED0DB
:10397000102E38D138E0FDF733FC616800EB5100C0
:10398000B0FBF1F080B22168C86030E0FDF73EFC8A
:10399000616800EB5100B0FBF1F080B22168C860B3
:1039A00025E01D49606801EB50006168B0FBF1F053
:1039B00080B22168C8601AE0FDF73EFC616800EB48
:1039C0005100B0FBF1F080B22168C8600FE04FF405
:1039D0000041606801EB50006168B0FBF1F080B21B
:1039E0002168C86003E000BF4FF0010900BF00BFBD
:1039F0004846BDE8F0870000F369FFEF003801405A
:103A0000001002400044004000480040004C0040CC
:103A1000005000400024F40000127A002DE9F0412B
:103A200004460D4617469846069E21E0701CF8B1E4
:103A30002EB1FCF7B1FFA0EB0800B04218D9206806
:103A4000006820F4D070216808602068806820F049
:103A5000010021688860202084F8690084F86A00E9
:103A600000BF002084F8680000BF0320BDE8F0819B
:103A70002068C0692840A84201D1012000E0002050
:103A8000B842D3D00020F1E71048006800F02000D1
:103A900020B10E48083000880D4908700C480078A5
:103AA0000C490D4A126888540B480068062806D154
:103AB0000020C871084908600849088004E00648E9
:103AC0000068401C04490860704700001C38014031
:103AD0000E00002004000020100000200C00002038
:103AE00010B51448006840F02000124908600846EC
:103AF000006820F08000086025200021002807DAF7
:103B00000A07140E0C4A00F00F031B1FD45403E0E5
:103B10000A07130E094A135400BF252000F01F02A4
:103B2000012191404209920002F1E022C2F8001105
:103B300000BF10BD0038014018ED00E000E400E0D7
:103B400000BFFEE700BFFEE70FB4084B10B504A9A5
:103B500002AA039800F020F8044602A9002000F011
:103B6000C5F8204610BC5DF814FB0000ED3C0008D1
:103B7000004870470C01002002E008C8121F08C16D
:103B8000002AFAD170477047002001E001C1121FDE
:103B9000002AFBD1704700002DE9FF4F89B09B46FA
:103BA0000446002506E025280BD05A460B9990477D
:103BB000641C6D1C20780028F5D10DB02846BDE8A6
:103BC000F08F0027B8460122474900E0074314F868
:103BD000013F203B02FA03F00842F7D120782E285B
:103BE00019D114F8010F47F004072A280ED06FF0FE
:103BF0002F022078A0F1300109290CD808EB8801A8
:103C000002EB410100EB0108641CF2E70A98641C16
:103C100050F8048B0A9020780028CED0642808D071
:103C2000692806D075281ED05A460B9990476D1CFE
:103C300058E00A994FF00A0901C90A91002802DAEE
:103C400040422D2102E0390504D52B218DF82010AA
:103C5000012103E0F90704D02021F7E78A4608AEE6
:103C60000DE00021FAE70A994FF00A0901C90A910B
:103C7000F7E74946FCF717FC303106F8011D00282C
:103C8000F7D1ADEB060000F12009780701D44FF021
:103C90000108C84502DDA8EB090000E000208046CD
:103CA000002706E008A85A46C05D0B9990476D1C96
:103CB0007F1C5745F6DB04E030205A460B999047AD
:103CC0006D1CB8F10001A8F10108F5DC05E016F85B
:103CD000010B5A460B9990476D1CB9F10001A9F1EF
:103CE0000109F4DC641C65E7092801000A68531C1B
:103CF0000B60107070470000FCF760FEFFF71CF9C6
:103D0000FEF7B2FDFEF70EFFFEF73AFEFEF7ACFE41
:103D1000FFF7E6FE00211748FEF79CFA042115483C
:103D2000FEF798FA0C211448FEF794FAFEF73CFCD3
:103D300000F022F91CE001201049088000BF0F4864
:103D400000880028FBD10E480078612803DB0C486E
:103D5000007871280ADDFEF773FB0A48FCF746FA83
:103D6000044621460748FEF751FD01E000F00CF83B
:103D7000E1E7000010010020500100200C000020AD
:103D800004000020180000207FB534480078622825
:103D900026D008DC062847D00A2848D00B2849D06E
:103DA000612858D108E063282ED0642830D06528D7
:103DB00032D066284FD133E0012005E027490A5C64
:103DC000411E0DF80120401C0728F7DB6846FCF770
:103DD00014FA05B2224A0121284600F043F83BE0DC
:103DE000012005E01D490A5C411E02AB5A54401CEB
:103DF0000728F7DB02A8FCF700FA04B2184A0021F2
:103E0000204600F02FF827E00120FEF7D9FF23E03D
:103E10000120FEF777FF1FE00120FEF7F5FE1BE013
:103E20000120FEF7CDFE17E0FEF705FF14E0FEF7D8
:103E3000DDFE11E00A4A0121002000F013F8084AD3
:103E40000021084600F00EF8FEF7FAFAFEF7CEFE63
:103E5000FEF7F1FE00E000BF00BF7FBD04000020C0
:103E6000100100202DE9F0412DED068B04460D4692
:103E70001746002C0CDB012D0AD100224FF0904098
:103E8000FCF784FD012202214FF09040FCF77EFDFB
:103E9000002C0DDA012D0BD1012211464FF090407C
:103EA000FCF774FD002202214FF09040FCF76EFDFC
:103EB000002C0ADB4DB9002201212848FCF766FDE1
:103EC000012202212548FCF761FD002C0ADA4DB9D8
:103ED000012211462148FCF759FD002202211F480A
:103EE000FCF754FD201E01DB014600E041420CB20C
:103EF0000CB9002626E02046FCF7A5FA41EC1A0B87
:103F00009FED170B53EC102BFCF72BFA41EC190B20
:103F10009FED150B53EC102BFCF77CF941EC180BC3
:103F2000FCF7A2FA06B2324611A11248FFF70CFEC6
:103F3000FEF786FA0F48FCF759F9804641460D48CE
:103F4000FEF764FC012D01D1386846630DB938686D
:103F50008663BDEC068BBDE8F081000000040048DC
:103F6000A454C2137AFDA13F000000000080484025
:103F700025640000FC00002000B585B040200090C2
:103F80000120019000200290039069462148FCF72F
:103F900009FC8020009001200190002002900390F5
:103FA00069461C48FCF7FEFB4FF48070009001202E
:103FB000019000200290039069461648FCF7F2FB3E
:103FC0004FF40070009001200190002002900390B7
:103FD00069461048FCF7E6FB40F2044000900E48AA
:103FE00001900020029069460C48FCF7DBFB0022A0
:103FF00011460820FCF771FD0820FCF761FD002246
:1040000011462820FCF769FD2820FCF759FD05B072
:1040100000BD000000080048000011100004004826
:1040200002030405060708090A0B0C0D0E0F1010F9
:104030000102030405060708090A0B0C0D0E0F10F8
:104040000000000000000000010203040607080948
:104050000000000001020304004040404040404096
:10406000404041414141414040404040404040404B
:1040700040404040404040404005020202020202EF
:10408000020202020202020202202020202020203E
:104090002020200202020202020290909090909052
:1040A0001010101010101010101010101010101010
:1040B0001010101002020202020288888888888884
:1040C0000808080808080808080808080808080870
:1040D00008080808020202024000000059400008D7
:1040E000004100080000002010010000783B00089B
:1040F000104200081001002060050000883B000805
:1041000090010020000000000000000001000000FD
:10411000000000004600000042616420636F6D6D86
:10412000616E64000000000000000000000000005C
:1041300000000000000053776974636820657272A4
:104140006F7200000000000000000000000000008E
:10415000000000004C61737420636F6D6D616E64CC
:104160003A00000000000000000000000000000015
:104170000000536572766F2075700000000000002B
:10418000000000000000000000000000000000002F
:10419000536572766F20646F776E00000000000038
:1041A0000000000000000000000000000000537448
:1041B00065702052000000000000000000000000B8
:1041C0000000000000000000000000005374657053
:1041D000204C000000000000000000000000000073
:1041E00000000000000000000000000000000000CF
:1041F000100000000100000000127A000000000022
:1042000000000000000000000000000000000000AE
:040000050800019559
:00000001FF
